{
  "contractName": "EthSwap",
  "abi": [
    {
      "inputs": [
        {
          "internalType": "contract Token",
          "name": "_token",
          "type": "address"
        }
      ],
      "stateMutability": "payable",
      "type": "constructor",
      "payable": true
    },
    {
      "anonymous": false,
      "inputs": [
        {
          "indexed": false,
          "internalType": "address",
          "name": "account",
          "type": "address"
        },
        {
          "indexed": false,
          "internalType": "address",
          "name": "token",
          "type": "address"
        },
        {
          "indexed": false,
          "internalType": "uint256",
          "name": "amount",
          "type": "uint256"
        },
        {
          "indexed": false,
          "internalType": "uint256",
          "name": "rate",
          "type": "uint256"
        }
      ],
      "name": "TokensPurchased",
      "type": "event"
    },
    {
      "anonymous": false,
      "inputs": [
        {
          "indexed": false,
          "internalType": "address",
          "name": "account",
          "type": "address"
        },
        {
          "indexed": false,
          "internalType": "address",
          "name": "token",
          "type": "address"
        },
        {
          "indexed": false,
          "internalType": "uint256",
          "name": "amount",
          "type": "uint256"
        },
        {
          "indexed": false,
          "internalType": "uint256",
          "name": "rate",
          "type": "uint256"
        }
      ],
      "name": "TokensSold",
      "type": "event"
    },
    {
      "inputs": [],
      "name": "name",
      "outputs": [
        {
          "internalType": "string",
          "name": "",
          "type": "string"
        }
      ],
      "stateMutability": "view",
      "type": "function",
      "constant": true
    },
    {
      "inputs": [],
      "name": "token",
      "outputs": [
        {
          "internalType": "contract Token",
          "name": "",
          "type": "address"
        }
      ],
      "stateMutability": "view",
      "type": "function",
      "constant": true
    },
    {
      "inputs": [],
      "name": "buy_token",
      "outputs": [],
      "stateMutability": "payable",
      "type": "function",
      "payable": true
    },
    {
      "inputs": [
        {
          "internalType": "uint256",
          "name": "_amount",
          "type": "uint256"
        }
      ],
      "name": "sellToken",
      "outputs": [],
      "stateMutability": "nonpayable",
      "type": "function"
    }
  ],
  "bytecode": "0x60806040526040518060400160405280601881526020017f4574685377617020696e7374616e742045786368616e676500000000000000008152506000908051906020019062000051929190620000c4565b50606460025560405162000cc938038062000cc983398181016040528101906200007c9190620001f2565b80600160006101000a81548173ffffffffffffffffffffffffffffffffffffffff021916908373ffffffffffffffffffffffffffffffffffffffff1602179055505062000289565b828054620000d29062000253565b90600052602060002090601f016020900481019282620000f6576000855562000142565b82601f106200011157805160ff191683800117855562000142565b8280016001018555821562000142579182015b828111156200014157825182559160200191906001019062000124565b5b50905062000151919062000155565b5090565b5b808211156200017057600081600090555060010162000156565b5090565b600080fd5b600073ffffffffffffffffffffffffffffffffffffffff82169050919050565b6000620001a68262000179565b9050919050565b6000620001ba8262000199565b9050919050565b620001cc81620001ad565b8114620001d857600080fd5b50565b600081519050620001ec81620001c1565b92915050565b6000602082840312156200020b576200020a62000174565b5b60006200021b84828501620001db565b91505092915050565b7f4e487b7100000000000000000000000000000000000000000000000000000000600052602260045260246000fd5b600060028204905060018216806200026c57607f821691505b6020821081141562000283576200028262000224565b5b50919050565b610a3080620002996000396000f3fe60806040526004361061003f5760003560e01c806306fdde03146100445780632397e4d71461006f57806383d8cfc014610098578063fc0c546a146100a2575b600080fd5b34801561005057600080fd5b506100596100cd565b60405161006691906105f5565b60405180910390f35b34801561007b57600080fd5b5061009660048036038101906100919190610652565b61015b565b005b6100a0610377565b005b3480156100ae57600080fd5b506100b7610536565b6040516100c491906106fe565b60405180910390f35b600080546100da90610748565b80601f016020809104026020016040519081016040528092919081815260200182805461010690610748565b80156101535780601f1061012857610100808354040283529160200191610153565b820191906000526020600020905b81548152906001019060200180831161013657829003601f168201915b505050505081565b600160009054906101000a900473ffffffffffffffffffffffffffffffffffffffff1673ffffffffffffffffffffffffffffffffffffffff166370a08231336040518263ffffffff1660e01b81526004016101b6919061079b565b602060405180830381865afa1580156101d3573d6000803e3d6000fd5b505050506040513d601f19601f820116820180604052508101906101f791906107cb565b81111561020357600080fd5b6000600254826102139190610856565b90508047101561022257600080fd5b600160009054906101000a900473ffffffffffffffffffffffffffffffffffffffff1673ffffffffffffffffffffffffffffffffffffffff166323b872dd3330856040518463ffffffff1660e01b815260040161028193929190610896565b6020604051808303816000875af11580156102a0573d6000803e3d6000fd5b505050506040513d601f19601f820116820180604052508101906102c49190610905565b5060003390508073ffffffffffffffffffffffffffffffffffffffff166108fc839081150290604051600060405180830381858888f19350505050158015610310573d6000803e3d6000fd5b507f697c42d55a5e1fed3f464ec6f38b32546a0bd368dc8068b065c67566d73f329033600160009054906101000a900473ffffffffffffffffffffffffffffffffffffffff168560025460405161036a9493929190610932565b60405180910390a1505050565b6000346002546103879190610977565b905080600160009054906101000a900473ffffffffffffffffffffffffffffffffffffffff1673ffffffffffffffffffffffffffffffffffffffff166370a08231306040518263ffffffff1660e01b81526004016103e5919061079b565b602060405180830381865afa158015610402573d6000803e3d6000fd5b505050506040513d601f19601f8201168201806040525081019061042691906107cb565b101561043157600080fd5b600160009054906101000a900473ffffffffffffffffffffffffffffffffffffffff1673ffffffffffffffffffffffffffffffffffffffff1663a9059cbb33836040518363ffffffff1660e01b815260040161048e9291906109d1565b6020604051808303816000875af11580156104ad573d6000803e3d6000fd5b505050506040513d601f19601f820116820180604052508101906104d19190610905565b507f6faf93231a456e552dbc9961f58d9713ee4f2e69d15f1975b050ef0911053a7b33600160009054906101000a900473ffffffffffffffffffffffffffffffffffffffff168360025460405161052b9493929190610932565b60405180910390a150565b600160009054906101000a900473ffffffffffffffffffffffffffffffffffffffff1681565b600081519050919050565b600082825260208201905092915050565b60005b8381101561059657808201518184015260208101905061057b565b838111156105a5576000848401525b50505050565b6000601f19601f8301169050919050565b60006105c78261055c565b6105d18185610567565b93506105e1818560208601610578565b6105ea816105ab565b840191505092915050565b6000602082019050818103600083015261060f81846105bc565b905092915050565b600080fd5b6000819050919050565b61062f8161061c565b811461063a57600080fd5b50565b60008135905061064c81610626565b92915050565b60006020828403121561066857610667610617565b5b60006106768482850161063d565b91505092915050565b600073ffffffffffffffffffffffffffffffffffffffff82169050919050565b6000819050919050565b60006106c46106bf6106ba8461067f565b61069f565b61067f565b9050919050565b60006106d6826106a9565b9050919050565b60006106e8826106cb565b9050919050565b6106f8816106dd565b82525050565b600060208201905061071360008301846106ef565b92915050565b7f4e487b7100000000000000000000000000000000000000000000000000000000600052602260045260246000fd5b6000600282049050600182168061076057607f821691505b6020821081141561077457610773610719565b5b50919050565b60006107858261067f565b9050919050565b6107958161077a565b82525050565b60006020820190506107b0600083018461078c565b92915050565b6000815190506107c581610626565b92915050565b6000602082840312156107e1576107e0610617565b5b60006107ef848285016107b6565b91505092915050565b7f4e487b7100000000000000000000000000000000000000000000000000000000600052601260045260246000fd5b7f4e487b7100000000000000000000000000000000000000000000000000000000600052601160045260246000fd5b60006108618261061c565b915061086c8361061c565b92508261087c5761087b6107f8565b5b828204905092915050565b6108908161061c565b82525050565b60006060820190506108ab600083018661078c565b6108b8602083018561078c565b6108c56040830184610887565b949350505050565b60008115159050919050565b6108e2816108cd565b81146108ed57600080fd5b50565b6000815190506108ff816108d9565b92915050565b60006020828403121561091b5761091a610617565b5b6000610929848285016108f0565b91505092915050565b6000608082019050610947600083018761078c565b610954602083018661078c565b6109616040830185610887565b61096e6060830184610887565b95945050505050565b60006109828261061c565b915061098d8361061c565b9250817fffffffffffffffffffffffffffffffffffffffffffffffffffffffffffffffff04831182151516156109c6576109c5610827565b5b828202905092915050565b60006040820190506109e6600083018561078c565b6109f36020830184610887565b939250505056fea2646970667358221220e0e218233c37b53b3871d04f824b0df7d97a9b0dd52a2cc8cf42bb7d13eeb6b264736f6c634300080b0033",
  "immutableReferences": {},
  "source": "pragma solidity 0.8.11;\r\n\r\nimport \"./Token.sol\";\r\n\r\ncontract EthSwap {\r\n    string public name = \"EthSwap instant Exchange\";\r\n    Token public token;\r\n    uint256 redemption_rate = 100; // 1ether = 100 LWC Token\r\n\r\n    event TokensPurchased(\r\n        address account,\r\n        address token,\r\n        uint256 amount,\r\n        uint256 rate\r\n    );\r\n    event TokensSold(\r\n        address account,\r\n        address token,\r\n        uint256 amount,\r\n        uint256 rate\r\n    );\r\n\r\n    constructor(Token _token) public payable {\r\n        // where this token address is coming see the 2_deploy_contract.js in migration folder\r\n        token = _token; // we store the token contract address to a state variable called token\r\n    }\r\n\r\n    function buy_token() public payable {\r\n        // this function transfer the token to that person from ethswap contract account blaance to that person account balance\r\n\r\n        // calculate value for transfer function\r\n        // 1 ether = 100 LWC token\r\n        // value = 1 * 100 you will get the how many lWC token will transfer\r\n        uint256 tokenAmount = redemption_rate * msg.value;\r\n\r\n        require(token.balanceOf(address(this)) >= tokenAmount);\r\n\r\n        token.transfer(msg.sender, tokenAmount); // msg is the global variable and sender is basically value of address that's calling this transfer function\r\n\r\n        // design Emit the even transfer\r\n        emit TokensPurchased(\r\n            msg.sender,\r\n            address(token),\r\n            tokenAmount,\r\n            redemption_rate\r\n        );\r\n    }\r\n\r\n    function sellToken(uint256 _amount) public {\r\n        // user cant send the token they have\r\n\r\n        require(_amount <= token.balanceOf(msg.sender));\r\n\r\n        // amount = how many LWC Token they want to sell suppose 100 token so 100 token will pass in _amount\r\n        // here we are creating sell function\r\n\r\n        // ** now we are calculating the amount of ehter to give the msg.sender\r\n\r\n        uint256 etherAmount = _amount / redemption_rate;\r\n\r\n        require(address(this).balance >= etherAmount);\r\n\r\n        // ** now we are transfering lWC token from user account to ehtswap contract adress\r\n        token.transferFrom(msg.sender, address(this), _amount); // this function is transfering amount on the behalf of investor(msg.sender)\r\n        address payable invstr = payable(msg.sender);\r\n        invstr.transfer(etherAmount); // this is not ERC20 transfer function\r\n\r\n        // here we are emitting the event\r\n\r\n        emit TokensSold(msg.sender, address(token), _amount, redemption_rate);\r\n    }\r\n}\r\n",
  "sourcePath": "E:\\Blockchain\\exchange_system\\eth_swap\\src\\contracts\\EthSwap.sol",
  "compiler": {
    "name": "solc",
    "version": "0.8.11+commit.d7f03943.Emscripten.clang"
  },
  "schemaVersion": "3.4.4",
  "updatedAt": "2022-03-05T20:40:35.797Z",
  "networkType": "ethereum",
  "devdoc": {
    "kind": "dev",
    "methods": {},
    "version": 1
  },
  "userdoc": {
    "kind": "user",
    "methods": {},
    "version": 1
  }
}